:020000040800F2
:100000003859002029030008C93B0008553300086F
:10001000B93B00084F060008C54C0008000000006E
:10002000000000000000000000000000690200085D
:10003000FD0A000800000000C5020008A9410008F0
:100040004303000843030008430300084303000878
:100050004303000843030008430300084303000868
:10006000430300084303000843030008110A000883
:100070001D0A0008290A000843030008430300087A
:10008000350A00084303000843030008430300083F
:100090007D060008430300084303000843030008EB
:1000A0004303000843030008430300084303000818
:1000B000A942000843030008430300084303000863
:1000C00043030008430300084303000843030008F8
:1000D00043030008214C0008394C0008514C00082B
:1000E00043030008430300084303000843030008D8
:1000F00043030008B5420008430300084303000817
:1001000043030008430300084303000843030008B7
:10011000A9460008C146000843030008430300083D
:1001200043030008410A00084D0A00084303000881
:100130004303000800000000000000004303000823
:10014000B506000843030008430300084303000802
:100150004303000843030008430300085D4C000804
:100160004303000843030008430300084303000857
:1001700043030008430300080000000000000000E3
:10018000430300084303000800F002F800F05CF8A5
:100190000AA090E8000C82448344AAF10107DA45E2
:1001A00001D100F051F8AFF2090EBAE80F0013F0D8
:1001B000010F18BFFB1A43F0010318475C5D0000F4
:1001C0007C5D00000A444FF0000C10F8013B13F076
:1001D000070408BF10F8014B1D1108BF10F8015BA0
:1001E000641E05D010F8016B641E01F8016BF9D193
:1001F00013F0080F1EBF10F8014BAD1C0C1B09D1EA
:100200006D1E58BF01F801CBFAD505E014F8016B5B
:1002100001F8016B6D1EF9D59142D6D370470000ED
:100220000023002400250026103A28BF78C1FBD8FF
:10023000520728BF30C148BF0B6070471FB505F09B
:1002400081FC1FBD10B510BD00F0C8F91146FFF7C5
:10025000F5FF04F0F1FD00F0E6F903B4FFF7F2FF5B
:1002600003BC00F0EDF900002C4B19680868B0E8F9
:10027000F04F80F30988BFF36F8F4FF0000080F3D9
:10028000118870470000000008480068006880F38B
:1002900008884FF0000080F3148862B661B6BFF39F
:1002A0004F8FBFF36F8F00DF00BF00BF08ED00E08E
:1002B000DFF80C00016841F470010160704700BF75
:1002C00088ED00E0EFF30980BFF36F8F134B1A68DE
:1002D0001EF0100F08BF20ED108A20E9F04F1060CB
:1002E00009B44FF0500080F31188BFF34F8FBFF374
:1002F0006F8F05F02FFA4FF0000080F3118809BCD2
:1003000019680868B0E8F04F1EF0100F08BFB0EC95
:10031000108A80F30988BFF36F8F7047840800202C
:10032000EFF30580704700000948804709480047FF
:10033000FEE7FEE7FEE7FEE7FEE7FEE7FEE7FEE795
:10034000FEE7FEE704480549054A064B70470000F2
:100350006D420008890100083853002038590020F8
:10036000385500203855002053EA020C00F069800F
:100370002DE9F04B4FF00006002B1FBFB3FA83F5B9
:1003800003FA05F424FA05F65E4012BF1643B2FAEA
:1003900082F502FA05F4C5F120051EBF22FA05FC1C
:1003A00044EA0C04203556EA044C4FEA144418BFC2
:1003B000641C4FF000084FF00009904271EB030CF1
:1003C00039D3002919BFB1FA81F701FA07F6B0FA5B
:1003D00080F700FA07F6C7F120071EBF20FA07FCD6
:1003E00046EA0C062037B6FBF4FCA7EB0507103FE6
:1003F00007F01F0BCBF120060CFA0BFB2CFA06F6CC
:1004000044BFB3460026202FA4BF5E464FF0000B2A
:100410005BEA060C08BF4FF0010B19EB0B09ABFBB5
:10042000027C48EB0608C01B06FB02CC0BFB03CC8E
:1004300071EB0C01C1E70B46024641464846BDE858
:10044000F08B13B54FF000004FF00001AFF30080C8
:10045000BDE81C407047032A40F2308010F0030CC6
:1004600000F0158011F8013BBCF1020F624498BF07
:1004700011F801CB00F8013B38BF11F8013BA2F1A4
:10048000040298BF00F801CB38BF00F8013B11F01F
:10049000030300F02580083AC0F0088051F8043BBF
:1004A000083A51F804CBA0E80810F5E7121D5CBF2C
:1004B00051F8043B40F8043BAFF30080D20724BF5F
:1004C00011F8013B11F801CB48BF11F8012B24BFF3
:1004D00000F8013B00F801CB48BF00F8012B704742
:1004E00010B5203AC0F00B80B1E81850203AA0E8CF
:1004F0001850B1E81850A0E81850BFF4F5AF5FEA03
:10050000027C24BFB1E81850A0E8185044BF18C9B5
:1005100018C0BDE810405FEA827C24BF51F8043B5C
:1005200040F8043B08BF7047D20728BF31F8023BB0
:1005300048BF11F8012B28BF20F8023B48BF00F844
:10054000012B70474FF000020429C0F0128010F018
:10055000030C00F01B80CCF1040CBCF1020F18BF9F
:1005600000F8012BA8BF20F8022BA1EB0C0100F032
:100570000DB85FEAC17C24BF00F8012B00F8012B05
:1005800048BF00F8012B70474FF0000200B513463A
:1005900094469646203922BFA0E80C50A0E80C50A3
:1005A000B1F12001BFF4F7AF090728BFA0E80C5054
:1005B00048BF0CC05DF804EB890028BF40F8042B4D
:1005C00008BF704748BF20F8022B11F0804F18BFBA
:1005D00000F8012B7047704770477047754600F070
:1005E0002BF8AE4605006946534620F007008546C5
:1005F00018B020B5FFF7A6FEBDE820404FF000067A
:100600004FF000074FF000084FF0000B21F00701FA
:10061000AC46ACE8C009ACE8C009ACE8C009ACE83D
:10062000C0098D46704710B50446AFF300802046E0
:10063000BDE81040FFF711BE00487047D8520020B7
:1006400001491820ABBEFEE7260002007047FEE716
:1006500000B58BB06946084800F03EF86946064888
:1006600000F070FC0221044800F0ECFB024800F0AE
:10067000EBFF0BB000BD0000500B0020014800F064
:100680005CBD0000500B002000B58BB069460848E7
:1006900000F022F86946064800F054FC02210448A4
:1006A00000F0D0FB024800F0CFFF0BB000BD00000F
:1006B000780B0020014800F040BD0000780B0020BE
:1006C0000A8852BA02804A8852BA42808A8852BA4C
:1006D000828089798171704700220123C1E9062354
:1006E0000A604A608A60CA604A610A610E22C1E9F2
:1006F00008320068034B984203D0034B984200D164
:100700004A6170470064004000680040C28802816E
:100710004A7802704A8882808A884280C988C1806B
:100720007047000008B5094A40F267531360002380
:100730009360D36002231361054A6B4610705170B9
:100740000249044800F090FB08BD0000401400205E
:100750006E060020500B002008B50B4A4FF42073A2
:10076000136000239360D36008231361074A6B462C
:100770001070000A50709170080AD0700249044845
:1007800000F072FB08BD0000F813002056060020A0
:10079000500B002008B50B4A40F2FF1313600023F2
:1007A0009360D36008231361074A030A9370D070E3
:1007B000080A107151716B460249044800F054FB5D
:1007C00008BD0000101400205E060020780B0020F9
:1007D0000A4908B540F2FF120A6000228A60CA6026
:1007E00008220A610649020A6B460A7048700A46E6
:1007F0000249044800F038FB08BD00001014002036
:100800005E060020500B00202DE9084005F0CCF8D2
:10081000009000F0D3F80321684604F017FFF5E7D5
:1008200010B5174CB9EE000A2DED028B04F1A000B3
:10083000D4ED830A03F064FA9FED128AD4ED840AA2
:1008400004F1E400B0EE480A03F05AFA94ED340AD9
:10085000D4ED450A04F5D87030EE200AF0EE480ACF
:1008600084ED8E0A03F04CFA94ED780AF1EE400A1A
:10087000C4ED900A84ED910ABDEC028B10BD00001E
:1008800044000020000000002E480A22DFED300A5C
:1008900081782D4801702D4991ED010A80ED830A80
:1008A000B1F90C1091FBF2F100EE101AB8EEC00A8B
:1008B00080ED840AB0F91010B0F906208B1A00EE12
:1008C000103A114402EE101AB8EEC01A2349B8EEDD
:1008D000C22A81EE200A9FED1F1AC2EE202A60EE86
:1008E000011AB6EE000A61EE801A61EE801AC0EDC0
:1008F0007F1A62EE810A60EE800A20EE800ADFED48
:10090000160A80ED860A90ED810A01EEA00A80EDBC
:10091000810AB1F9062000EE102AB8EEC00A80ED77
:100920008A0AB1F9042000EE102AB8EEC00A80ED60
:100930008B0AB1F9001000EE101AB8EEC00A80ED73
:100940008C0A704718000020440000204415002045
:10095000E12E6542CDCC4C3E6F12833A84140020C8
:10096000014800F003B800005C00002070B50A4D9B
:1009700004460A4988306A68FFF76DFD084904F1AA
:10098000CC006A68FFF767FD04F5CC706A68BDE8C3
:1009900070400449FFF75FBD38000020AD0600201D
:1009A000B9060020C50600200349002008804880C1
:1009B0000146FFF7D1BE00004000002010B5FFF750
:1009C00063FF114841780078FFF7ACFE0F48007ACA
:1009D000012803D0BDE81040FFF7E6BFFFF720FF76
:1009E00009480C3090ED910ABDEEC00A10EE101AC5
:1009F00090ED900ABDE81040BDEEC00A09B210EEBD
:100A0000100A00B2FFF7A8BE3800002084140020AE
:100A1000014800F0A7BE0000D00E0020014800F001
:100A2000A1BE0000F00F0020014800F09BBE0000B6
:100A3000700E0020014800F095BE0000900F0020CD
:100A4000014800F08FBE0000780C0020014800F043
:100A500089BE0000300F002001681823CAB2103A86
:100A6000B2FBF3F2054B6FF30901032A9B5CC365EC
:100A700000D9091D8165084670470000C05E000866
:100A800010B5014600208B698A6A4FF0C07453B1DB
:100A9000B3F5005F15D072B1012A0CD0022A0AD03A
:100AA000032A09D104E01AB1012A06D0022A03D18F
:100AB000C96AC90100D5012010BDC96AA142FAD096
:100AC00010BD002AF7D0012AF2D0022AF3D0032A5F
:100AD000F3D010BD30B50468256825F48025256065
:100AE000046863608368402B036803D099600068E2
:100AF000C26030BD9A600068C16030BD704710B5FB
:100B0000FFF7A6FDFFF7C0FDBDE8104004F0ACB84C
:100B100072B6FEE72DE9084004F046FF009002F0AF
:100B200071FC00F07DF90321684604F08FFDF3E7C6
:100B3000DFED120A9FED121AC0ED110A80ED181AAE
:100B4000C0ED190A9FED0F0A80ED171ADFED0E1A9E
:100B500080ED160AC0ED221AC0ED2A0ADFED0B0A5D
:100B600000F19C0181EC030ADFED090A80ED2C0AFB
:100B7000C0ED2D0A80ED2E0A70470000005043475B
:100B80000050C3460000000000803B4600204B465A
:100B90006F12833ADFED120A9FED121AC0ED110AAF
:100BA00080ED181AC0ED190A9FED0F0A80ED171A93
:100BB000DFED0E1A80ED160AC0ED221AC0ED2A0AEA
:100BC000DFED0B0A00F19C0181EC030ADFED090A5D
:100BD00080ED2C0AC0ED2D0A80ED2E0A7047000032
:100BE000005043470050C3460000000000803B46D1
:100BF00000204B466F12033A074800B5022100F867
:100C0000041F032180F8C810FFF7C4FF02485DF8F5
:100C100004EBCC30FFF78CBF9C02002010B558B11C
:100C2000084C491E0BD310F8013B5340DBB234F89B
:100C3000133083EA1222F4E74FF6FF7010BD10461E
:100C400010BD0000C05C000810B5054C04E000BFFA
:100C500010F8013B5340E25C491EF9D2104610BD2A
:100C6000C05B000810B50F4800F030F8BDEEC00AB8
:100C70000C4C10EE100A0C3C208004F1D40000F063
:100C800025F8BDEEC00A10EE100A6080B4F900002D
:100C9000FFF79EFDB4F90200BDE810400021FFF708
:100CA00079BD0000A0020020064810B506498078F2
:100CB000087000F099F800F01FF8BDE8104002F04D
:100CC00059BB0000180000209C02002070B50446AB
:100CD00000F12405061DD0ED070A90ED080A6830E2
:100CE00003F00EF886ED050AD4ED050A2846BDE8A6
:100CF000704003F005B8000010B5044800F008F893
:100D00000248BDE81040C83000F002B8A002002040
:100D100070B501782A4C00F1240500F1680602291B
:100D200002D003294BD123E0254995F888000A68B1
:100D3000012812D002282349284606D04831FFF75F
:100D40008AFB21493046226810E06031FFF783FBBF
:100D50001D4930461831226808E01A4928465431A6
:100D6000FFF779FB184930460C312268FFF773FB17
:100D700095F88800012814D00228124922682846D4
:100D800007D06C31FFF767FB0F49304624312268EA
:100D900011E08431FFF75FFB0B4930463C3122689C
:100DA00009E00849284678312268FFF754FB0649D4
:100DB000226830313046BDE87040FFF74CBB70BD53
:100DC0008C020020D1060020F107002010B5054854
:100DD00003F01AF90348C83003F0F4F8BDE81040F6
:100DE000FFF740BFA00200200448014690F894217C
:100DF00080F8B02081F87821704700009C02002024
:100E000010B5064C002020806080FFF7E1FCB4F9AB
:100E10000200BDE810400021FFF7BCBC900200209A
:100E200010B5FFF741FF0648007A012803D0BDE85E
:100E30001040FFF7E5BFBDE81040FFF7C7BF000057
:100E40008414002090F82020012A07D0022A05D01F
:100E5000416A41F480214162012070470068426983
:100E60000A43426100207047F0B590F820500468B2
:100E7000A468012D05D0022D03D0416A41F48021E0
:100E80005DE014F0406F01D1E50055D5C4F3016475
:100E9000022C03D9416A41F4000150E00125A5402C
:100EA0001D608D684FF4C0739DB1CE6835434E68A8
:100EB00045EAC605066803EB0417F5514FF4C27501
:100EC000076805EB04150E697E51097D012905D0DF
:100ED00009E00E88CD6845EA4655EBE701684E59B2
:100EE00046F480764E511179D579567941EA0561FB
:100EF00095792D0445EA062529434FF4C676056801
:100F000006EB0416A9511178D57841EA0561957868
:100F100052782D0445EA022211434FF4C475026849
:100F200005EB04155151006803EB0411425842F0DF
:100F3000010242500020F0BD416A41F400114162BB
:100F40000120F0BD10B590F82020012A07D0022A18
:100F500005D0416A41F480214162012010BD3B4827
:100F6000D0F8002242F00102C0F80022D0F800229E
:100F700022F47C52C0F80022D0F800224B6A42EAE8
:100F80000322C0F800220A7D02F01F0301229A40CA
:100F9000D0F81C329343C0F81C32CB69B3B9D0F8F7
:100FA0000C329343C0F80C328C894B6864F31F43B6
:100FB0004C6900EBC404C4F840320C890B6864F33C
:100FC0001F434C6900EBC404C4F84432CB69012BC5
:100FD00016D1D0F80C321343C0F80C320C884B6891
:100FE00064F31F434C6900EBC404C4F840320C891D
:100FF000CB6864F31F434C6900EBC404C4F844326B
:101000008B69002BD0F804320ED01343C0F80432A1
:101010000B69002BD0F8143208D01343C0F81432F7
:10102000096A012904D008E09343EFE79343F5E709
:10103000D0F81C121143C0F81C12D0F8001221F095
:101040000101C0F80012002010BD00000064004043
:10105000704730B590F82040012C05D0022C03D009
:10106000416A41F480215DE00468002955D024697B
:10107000A40754D04FF4D874056804EB01142D591B
:1010800015F00405956005682D594ED0ED085560A2
:1010900005682C5904F00204D4604FF4DA74056832
:1010A00004EB01142D5905F00F05156105682D5944
:1010B000C5F30725956105682C59240C54614FF43C
:1010C000DC72046802EB0112A4581C700468A45876
:1010D000240A5C700468A458240C9C700468A2580C
:1010E000120EDA704FF4DE72046802EB0112A4589B
:1010F0001C710468A458240A5C710468A458240C68
:101100009C710468A258120EDA71006881B10169FD
:1011100041F020010161002030BDE468A8E7416A88
:1011200041F400114162012030BD6D0D1560AFE743
:10113000C16841F02001C160EDE72DE9F05F05468F
:10114000006800244669D0F804908768D0F80CB095
:10115000D0F810A0D0F81880F10748D0F90714D0C3
:1011600001218160B80703D5284600F09AFA0CE007
:10117000780702D54FF4006407E0380702D54FF432
:10118000805402E0284600F08BFAF80516D529684D
:101190004FF480708860B80503D5284600F083FAC4
:1011A0000CE0780502D544F4005407E0380502D578
:1011B00044F4804402E0284600F074FAF80316D59F
:1011C00029684FF480308860B80303D5284600F0C2
:1011D0006CFA0CE0780302D544F4004407E03803CD
:1011E00002D544F4803402E0284600F05DFA30076E
:1011F00007D55FEACB6004D52968102044F4007459
:10120000C86070074FF0080707D55FEA0B7004D578
:101210002868C760284600F09BF9B00706D5286803
:10122000C068800702D0284600F094F9700607D500
:101230005FEACA6004D52968102044F4806408611C
:10124000B00607D55FEA0A7004D52868076128460A
:1012500000F0F6F9F00606D528680069800702D08C
:10126000284600F0EEF9B00308D55FEAC96005D55D
:10127000296810204860284600F0E4F9F00307D5FB
:101280005FEA097004D528684760284600F00EFA26
:10129000300446D55FEA497040D5F00504D55FEAD1
:1012A000C87001D044F00104B00504D55FEA88702D
:1012B00001D544F00204700504D55FEA487001D5F9
:1012C00044F00404300529D518F0700F26D008F03A
:1012D0007000402815D006DC102809D020280AD03C
:1012E000302816D10AE050280ED0602811D10EE027
:1012F00044F008040DE044F010040AE044F0200437
:1013000007E044F0400404E044F0800401E044F4C9
:1013100080742868816921F0700181612968042046
:101320004860002C05D0686A204368622846FFF7B1
:101330008FFEBDE8F09F70B5040003D094F8200044
:1013400010B104E0012070BD204600F081F8206853
:10135000016841F00101016000F06EFC05460526C0
:1013600004E000F069FC401B0A2811D8206840689E
:10137000C007F6D02068016821F00201016000F08A
:101380005BFC05460BE000F057FC401B0A2806D921
:10139000606A40F40030606284F82060D2E7206820
:1013A00040688007EFD4207E0128206801683DD086
:1013B00021F080010160607E01282068016838D03A
:1013C00021F040010160A07E01282068016833D02F
:1013D00021F020010160E07E0128206801682ED004
:1013E00041F010010160207F01282068016829D0A8
:1013F00021F008010160607F01282068016824D085
:1014000021F004010160D4E902010843D4E9041287
:10141000114308436168491E08432168C8610020E0
:101420006062012084F82000002070BD41F080013E
:10143000C0E741F04001C5E741F02001CAE721F0D3
:101440001001CFE741F00801D4E741F00401D9E7EA
:10145000F0B587B0044614216846FFF795F8374B7E
:101460003748DFF8D4E01968D4F800C0344A0225C0
:101470000326092710300024491CF44524D11960A3
:10148000012907D1016841F000710160006800F096
:1014900000700590106840F001001060106802AB09
:1014A00000F0010005904FF4C050CDE9000583E83D
:1014B000D0006946234800F0C7FA00220521142015
:1014C00000F058FC142033E0DFF87CE0F44531D123
:1014D000D0F800C04CF0806CC0F800C0D0F800C05C
:1014E00001290CF0806CCDF814C0196007D1016897
:1014F00041F000710160006800F000700590106814
:1015000040F002001060106802AB00F0020005908D
:101510004FF44050CDE9000583E8D00069460B4800
:1015200000F092FA00220521402000F023FC402028
:1015300000F012FC07B0F0BD006400401000002075
:1015400030380240000002400068004000040240C1
:101550007047000010B5044600682F4988B08842E3
:1015600034D12E4B6A4600212D48FFF772FD0098BA
:1015700040F20522A0F20521904217D006DCA0F52A
:101580008070413809D0012820D109E0A1F54071CF
:10159000623910D0FF2919D114E02049214802E016
:1015A00020481E490A30FFF7B1F80FE01B491E48DA
:1015B000FFF786F80AE01948811E02780A70407821
:1015C000487003E01549194803F0FAFB18492068F0
:1015D00088421BD1114B6A4600211648FFF739FD9E
:1015E0000098A0F5007001380CD0012810D0052813
:1015F00004D006280AD109490F4805E00A480749DE
:10160000C83001E005490D48FFF75AF808B010BD91
:1016100009480249B038F7E7006400404E06002050
:10162000500B002048000020A4020020701400206D
:1016300000680040780B00209C0500203C0400203E
:10164000704770477047000070B5044690F820005E
:10165000012804D0606A40F40020606218E0022093
:1016600084F820002068016821F00101016000F089
:10167000E3FA05460EE000BF00F0DEFA401B0A2840
:1016800008D9606A40F400306062052084F82000C8
:10169000012070BD20684068C007EDD1606270BD58
:1016A00070477047704770477047704770472DE923
:1016B000F0410446876D00F0BFFA064694F8350005
:1016C0000025022806D08020606584F8345001206F
:1016D000BDE8F0812068016821F0160101602068F2
:1016E000416921F080014161206C08B9A06C20B1F2
:1016F0002068016821F0080101602068016821F07C
:10170000010101600CE000F097FA801B052807D961
:1017100020206065032084F8350084F83450D7E732
:1017200020680068C007EED194F85C103F20884024
:10173000B860012084F8350084F834500020C7E7F1
:1017400090F83510022903D08021416501207047AF
:10175000052180F835100068016821F00101016061
:10176000002070472DE9F84304464FF00009CDF8FA
:10177000009063484FF41651A56D0068B0FBF1F777
:101780002E6894F85C10082000FA01F131420FD065
:1017900021680A6852070BD50A6822F004020A6021
:1017A00094F85C108840A860606D40F001006065AE
:1017B00094F85C104FF0010808FA01F0304208D0AC
:1017C00021684969090604D5A860606D40F00200EF
:1017D000606594F85C1004208840304208D021688D
:1017E0000968890704D5A860606D40F00400606551
:1017F00094F85C1010208840304218D021680968A5
:10180000090714D5A86020680168490304D5006859
:10181000000308D5A16C07E00168C90503D401687D
:1018200021F008010160216C09B12046884794F835
:101830005C1020208840304231D021680968C906F8
:101840002DD5A86094F8350005282068016806D0D9
:10185000490347D5006800031DD4616C1CE021F0EA
:10186000160101602068416921F080014161206C0E
:1018700008B9A06C20B12068016821F0080101605E
:1018800094F85C103F208840A86084F8358084F884
:101890003490216D1FE0E16B09B120468847606DEF
:1018A00000282BD0606DC00714D0052084F83500C7
:1018B0002068016821F0010101600098401C00903F
:1018C000B84203D820680068C007F6D184F8358094
:1018D00084F83490E16C002910D001B02046BDE8B6
:1018E000F04308470168C905D5D4016821F010010B
:1018F000016084F8358084F83490CCE7BDE8F88343
:10190000F80800202DE9F041044600F095F906465C
:101910005CB1022084F83500002584F8345020683A
:10192000016821F0010101600DE00120BDE8F081B6
:1019300000F082F9801B052805D92020606503206E
:1019400084F83500F2E720680068C007F0D122680B
:10195000116820480140D4E901031843D4E9033653
:101960003343184363691843A3691843E369184371
:10197000236A18430843616A042903D1D4E90B138D
:1019800019430843106020684069666A20F0070127
:1019900030460E43012704280CD1A06A0643E06AB2
:1019A00040B12046FFF76CF820B14020606584F814
:1019B0003570BAE7206846612046FFF74DF894F885
:1019C0005C203F2191408160656584F8357000207E
:1019D000ACE700003F8010F02DE9F0410446866D31
:1019E00090F83400002501280DD0012084F834003F
:1019F00094F835700020012F07D084F834000225B8
:101A00002846BDE8F0810220FBE7022784F8357004
:101A100060652046FFF75EF894F85C103F20884030
:101A2000B0602068016841F016010160206C20B1AF
:101A30002068016841F0080101602068016841F0F8
:101A400001010160DCE700002DE9F84FDFF8BCA1DF
:101A50000022012503264FF00F090AF1040BAAF119
:101A6000040E00BF0B6805FA02F42340A34270D1B4
:101A70000F7907F00307012F01D0022F16D18768D5
:101A80004FEA420806FA08FC27EA0C07D1F80CC016
:101A90000CFA08FC4CEA070CC0F808C04768A743DA
:101AA0000C79C4F3001494403C4344600C79E44343
:101AB000A4070AD0C4684FEA420C06FA0CF7BC43EC
:101AC0008F6807FA0CF72743C7600C7904F003040A
:101AD000022C12D1D40800EB840CDCF8204057070C
:101AE000FF0E09FA07F824EA0804D1F8108008FA72
:101AF00007F848EA0408CCF8208004684FEA420C52
:101B000006FA0CF7BC430F7907F0030707FA0CF746
:101B1000274307604C6814F4403F70D03C4C276862
:101B200047F480472760246822F0030704F48044C8
:101B30000094384C07EB040CDCF8084897074FEA90
:101B4000177809FA08F7BC43334FB84202D100278F
:101B500024E054E0314FB84201D101271EE0304F5C
:101B6000B84201D1022719E02E4FB84201D1032714
:101B700014E02D4FB84201D104270FE02B4FB8429B
:101B800001D105270AE02A4FB84201D1062705E016
:101B9000284FB84201D1072700E0082707FA08F7C5
:101BA0002743CCF80878DAF800405746D1F804C04B
:101BB0009C435FEACC2C00D51C433C60DBF8004022
:101BC0005F46D1F804C09C435FEA8C2C00D51C43CF
:101BD0003C60DEF800407746D1F804C09C435FEAE1
:101BE0008C3C00D51C433C60084F083F3C68D1F852
:101BF00004C09C435FEACC3C00D51C433C60521CB3
:101C0000102AFFF42FAFBDE8F88F0000083C014018
:101C1000443802400030014000000240000402400D
:101C200000080240000C0240001002400014024074
:101C300000180240001C0240014880687047000004
:101C4000EC080020024881680278114481607047E6
:101C5000EC0800200B4810B5016841F400710160E8
:101C6000016841F480610160016841F480710160A4
:101C7000032000F09FF8052000F006F800F050F86F
:101C8000002010BD003C024030B505461F4887B01B
:101C90000024016841F480710160006806A900F425
:101CA0008070009001A800F031F90498A8B100F00C
:101CB0004DF940001649174AB0FBF1F11648491E8C
:101CC000026040F2E732C0E90324C0E901148461F4
:101CD00000F0B8FB040003D015E000F037F9E9E7A5
:101CE0000D4800F0F9FB04000DD12D2000F034F870
:101CF000102D07D2002229462D2000F03BF807487E
:101D0000056000E0012407B0204630BD40380240A5
:101D100040420F000020004050100020F00800203A
:101D20000C4882B0016841F480410160006800F411
:101D3000804000900748001F016841F08051016019
:101D40000068002200F0805000900F21901E02B029
:101D500000F010B844380240002809DB00F01F02F0
:101D6000012191404009800000F1E020C0F80011FD
:101D700070470000F0B40E4B1B680C46C3F30223FF
:101D8000C3F10705042D00D90425191D072901D227
:101D9000002300E0DB1E012606FA05F1491E214062
:101DA00099409E40761E16403143F0BC02F0E8BFD9
:101DB0000CED00E0064900F0070208684FF6FF034B
:101DC000184040EA0220034A1043086070470000B0
:101DD0000CED00E00000FA052DE9F0470E46050085
:101DE00065D0DFF81481D8F80000F7B200F00700E2
:101DF000B04207D288F80070D8F8000000F0070061
:101E0000B04254D128683D4C810712D5400703D514
:101E1000206840F4E05020602878000703D520684F
:101E200040F4604020602068A96820F0F00008437A
:101E300020602878C0072DD030496868083901280B
:101E400012D0022813D0032811D00968890700296D
:101E50002DDA216821F0030101432160FFF7ECFE38
:101E6000814641F2883A0EE009688903EFE7096884
:101E70008901ECE7FFF7E0FEA0EB0901514502D92B
:101E80000320BDE8F0872068696800F00C00B0EB23
:101E9000810FEFD1D8F80010404601F00701B142A0
:101EA00007D90770006800F00700B04201D0012098
:101EB000E7E72878400705D52068E96820F4E05076
:101EC000084320602878000706D52068296920F497
:101ED000604040EAC100206000F058F82168084ADC
:101EE000C1F30311515CC840064908600648006808
:101EF000FFF7CAFE0020C4E7003C02400838024059
:101F0000C85E0008F8080020F00800200F220260D8
:101F10000C4A136803F003034360136803F0F003F3
:101F20008360136803F4E053C36012684FF4E05316
:101F300003EAD20202610448006800F0070008606A
:101F40007047000008380240003C02400448054940
:101F500000680968044AC1F38221515CC840704797
:101F6000F808002008380240D85E000804480549F7
:101F700000680968044AC1F34231515CC8407047A7
:101F8000F808002008380240D85E0008154810B54F
:101F9000006810F00C02144813D01449042A0FD022
:101FA000082A0ED10F4C241F2268236802F03F023A
:101FB0005B0207D52068C0F38810A0FB010106E092
:101FC000084610BD2168C1F38811A1FB0001002360
:101FD000FEF7CAF92168C1F30141491C4900B0FB71
:101FE000F1F010BD083802400024F40040787D0173
:101FF0002DE9F84F04006ED02078DFF84C93C0072D
:10200000A9F104054AD009F104000168C1F3810176
:10201000012908D00068C0F3810002280AD1D9F84C
:102020000000400206D52868800337D56068002884
:10203000E1D033E06068B0F5803F10D0B0F5A02F5C
:10204000286810D020F480302860286820F4802090
:1020500028606068A8B1FFF7EFFD06460DE028682C
:1020600040F48030F4E740F480202860F7E700BFB8
:10207000FFF7E2FD801B642873D828688003F7D53A
:102080000CE0FFF7D9FD064605E000BFFFF7D4FDE1
:10209000801B6428F0D828688003F7D42078DFF804
:1020A000AC8280074FF0000A3ED5A748001D0168AA
:1020B00011F00C0F08D00068C0F3810002280BD18A
:1020C000D9F80000400207D42868800716D5E068D8
:1020D000012800D112E033E1E068B8B10120C8F86E
:1020E0000000FFF7A9FD064605E000BFFFF7A4FDCD
:1020F000801B0228C0D828688007F7D52868216986
:1021000020F0F80040EAC10028600DE0C8F800A007
:10211000FFF792FD064604E0FFF78EFD801B0228C4
:102120001FD828688007F7D42078000722D5864F6B
:1021300087486169703771B101210160FFF77CFD4B
:10214000064604E0FFF778FD801B022809D83868AE
:102150008007F7D50EE0C0F800A0FFF76DFD06463A
:1021600005E082E0FFF768FD801B02287DD8386813
:102170008007F7D42078400768D5DFF8CCB1002776
:102180000BF13C0BDBF80000C0000BD4DBF80010B7
:1021900041F08051CBF80010DBF80000012700F07F
:1021A000805000906B4E3068C00510D4306840F409
:1021B00080703060FFF740FD009005E0FFF73CFDC8
:1021C0000099401A022850D83068C005F6D55E4EF6
:1021D000A0686C3601280FD00528306810D020F098
:1021E00001003060306820F004003060A068B8B1B1
:1021F000FFF722FD00900FE0306840F00100F4E7A7
:1022000040F004003060F7E7FFF716FD0099411A2F
:1022100041F28830814266D830688007F4D50EE0FC
:10222000FFF70AFD009007E0FFF706FD0099411A4D
:1022300041F28830814256D830688007F4D42FB1FB
:10224000DBF8001021F08051CBF80010A069C8B372
:102250003D49091D0968C1F3810102294AD00228BC
:10226000504607D0C8F8600000E03CE0FFF7E4FC0F
:1022700004463BE04746C8F86000FFF7DDFC064631
:1022800005E000BFFFF7D8FC801B02282BD8286888
:102290008001F7D4D4E907010843A16A2E4A49080E
:1022A00002EB0141626A41EA8211084394F82C1062
:1022B00040EA0161C9F8001001203866FFF7BCFC54
:1022C000044606E03EE000BFFFF7B6FC001B022814
:1022D00009D828688001F7D534E000BFFFF7ACFCCF
:1022E000001B022802D90320BDE8F88F286880016E
:1022F000F4D427E00128F7D0D9F80000E26900F40F
:10230000800191421CD1226A00F03F01914217D115
:1023100047F6C071626A0140B1EB821F10D1A26A18
:102320004FF0FF3300F4403103EB5202B1EB024FA8
:1023300006D194F82C1000F07060B0EB016F01D062
:102340000120D1E70020CFE70438024000004742D7
:10235000800E4742007000400000FFFF704770474A
:1023600010B590F83C20012A22D0012280F83C20B0
:10237000CA688C6822F4407222434C6822F480625E
:1023800022430C6822F4006222430C6922F480523A
:1023900022434C6922F400522243C969002322F4EB
:1023A00080420A4301684A6480F83C30002010BD36
:1023B000022010BD70B590F83C20012A32D00124D3
:1023C00080F83C40022280F83D2003685A689D68EE
:1023D00022F070060A6832435A60134B02689A4230
:1023E00014D0B2F1804F11D0104B9A420ED0104B46
:1023F0009A420BD00F4B9A4208D00F4B9A4205D00D
:102400000E4B9A4202D00E4B9A4204D1496825F0F5
:1024100080031943916080F83D40002180F83C1012
:10242000084670BD022070BD00000140000400405D
:1024300000080040000C0040000401400040014042
:102440000018004010B5040003D094F83D0010B10E
:1024500007E0012010BD002084F83C00204600F079
:102460001FF8022084F83D00211D206801F030FF94
:10247000012084F8460084F83E0084F83F0084F888
:10248000400084F8410084F8420084F8430084F856
:10249000440084F8450084F83D00002010BD000091
:1024A00008B50068B0F1804F12D10A48016841F0C8
:1024B000010101600068002200F001000090052188
:1024C0001C20FFF757FCBDE808401C20FFF744BC68
:1024D00008BD00004038024090F83D10012901D0AD
:1024E00001207047022180F83D100168CA6842F05F
:1024F0000102CA6000681149884214D0B0F1804FCF
:1025000011D00F4988420ED00E4988420BD00E4997
:10251000884208D00D49884205D00D49884202D032
:102520000C49884204D1816801F00701062903D0D3
:10253000016841F001010160002070470000014086
:102540000004004000080040000C0040000401406E
:10255000004001400018004070B5044690F83C006F
:102560000025012817D0012684F83C60022084F859
:102570003D002068826822F0770222F47F42826068
:102580000868502838D00DDC20284FD005DC90B3E7
:10259000102811D14AE0022070BD302846D04028D2
:1025A0000AD13BE060282FD070280DD0B0F5805FB5
:1025B00003D0B0F5005F12D0012584F83D60002003
:1025C00084F83C00284670BDCB68D1E90121206821
:1025D00001F064FF2068816841F0770109E0CB6871
:1025E000D1E90121206801F059FF2068816841F498
:1025F00080418160E1E719E0CA684968206802F01B
:1026000021F85021206806E0CA684968206802F075
:102610002AF86021206801F04BFFCEE7CA684968BC
:10262000206802F00FF840212068F4E72268014694
:102630001046F0E77047704770B5044600680169BE
:102640004FF00005C943890715D4C168C9438907FC
:1026500011D4E91E0161012020772068806980077C
:10266000204602D0FFF7E7FF04E000F0DBF8204649
:1026700000F0B8F9257720680169C943490717D4E4
:10268000C168C943490713D46FF0040101610220F6
:1026900020772068806910F4407F204602D0FFF741
:1026A000CAFF04E000F0BEF8204600F09BF9257751
:1026B00020680169C943090716D4C168C9430907DD
:1026C00012D46FF008010161042020772068C069EE
:1026D0008007204602D0FFF7AEFF04E000F0A2F82A
:1026E000204600F07FF9257720680169C943C906B3
:1026F00017D4C168C943C90613D46FF01001016132
:10270000082020772068C06910F4407F204602D05E
:10271000FFF791FF04E000F085F8204600F062F931
:10272000257720680169C943C90708D1C168C94331
:10273000C90704D1891E0161204600F09FFA206874
:102740000169C943090609D4C168C943090605D40A
:102750006FF0800101612046FFF700FE20680169EB
:10276000C943490609D4C168C943490605D46FF075
:1027700040010161204600F08BFA20680169C943DD
:1027800089060BD4C168C943890607D46FF02001BC
:1027900001612046BDE87040FFF7E1BD70BD00005B
:1027A00030B587B0044614216846FDF7EDFE1948A0
:1027B0002468174D002182150223AC4210D1046811
:1027C00044F0010404600068009200F001000590EC
:1027D000CDE901310120CDE9031069460E4812E030
:1027E0000E4DAC4211D1046844F00404046000684A
:1027F000009200F004000590CDE901310320CDE9FD
:10280000031069460648FFF71FF907B030BD000006
:102810000000014030380240000002400004014046
:1028200000080240704770B5044690F83C0000264E
:102830000D4601280FD0012084F83C006AB1042A1B
:102840001DD0082A2FD00C2A3FD00126002084F862
:102850003C00304670BD022070BD206801F030FEA3
:102860002068816941F0080181612068816921F057
:1028700004018161206881692A69114311E020689F
:1028800001F04EFE2068816941F400618161206899
:10289000816921F480618161206881692A6941EA46
:1028A00002218161D2E7206801F070FE2068C169D1
:1028B00041F00801C1612068C16921F00401C161D2
:1028C0002068C1692A69114311E0206801F092FE75
:1028D0002068C16941F40061C1612068C16921F4C7
:1028E0008061C1612068C1692A6941EA0221C16130
:1028F000ACE710B5040003D094F83D0010B107E038
:10290000012010BD002084F83C00204600F01EF895
:10291000022084F83D00211D206801F0D9FC01202F
:1029200084F8460084F83E0084F83F0084F84000B4
:1029300084F8410084F8420084F8430084F844009D
:1029400084F8450084F83D00002010BD38B50546E8
:102950001F4B026800201F499A4223D10A6842F0A7
:1029600001020A6009681D4C01F0010100911A4939
:1029700021604FF0406161604021C4E9021009010B
:102980002161490061618900A1614911C4E9071011
:1029900060622046FEF7B6FF08B1FEF7B9F86C6238
:1029A000A56338BD0E488242FBD1086840F00200A2
:1029B00008600868002200F00200009005212D2028
:1029C000FFF7D8F9BDE838402D20FFF7C5B9000062
:1029D000000001404438024028640240780C002086
:1029E000000401400021014800F0E2B8A00B0020E3
:1029F000704700002DE9F04117460D0004464FF0E6
:102A000000060CD0042D11D0082D16D094F84100EA
:102A1000022819D094F84100012818D07BE094F8DE
:102A20003E00022810D094F83E00F5E794F83F00ED
:102A3000022809D094F83F00EEE794F840000228FD
:102A400002D094F84000E7E70220BDE8F0810FB91A
:102A5000002B60D14C494D4ADFF834C102204DB102
:102A6000042D18D0082D27D084F841000C2D44D017
:102A7000012687E084F83E00606AC163606A3946D7
:102A80000264606AC0F84CC02268606A3432FEF7A3
:102A9000A3FF88BB21E084F83F00A06AC163A06A5D
:102AA00039460264A06AC0F84CC02268A06A383275
:102AB000FEF792FF00BB15E084F84000E06AC163B6
:102AC000E06A39460264E06AC0F84CC02268E06AF5
:102AD0003C32FEF781FF78B909E02068C16841F413
:102AE00000711EE02068C16841F4806119E020682F
:102AF000C16841F4006114E00DE0206BC163206BFC
:102B000039460264206BC0F84CC02268206B40320A
:102B1000FEF762FF08B1012097E72068C16841F421
:102B20008051C16001222946206801F035FC194915
:102B30002068194A884201D0904203D1436C43F483
:102B4000004343642068884213D0B0F1804F10D016
:102B5000124988420DD0124988420AD01149884250
:102B600007D0904205D01049884202D00F498842D0
:102B700004D1816801F00701062903D0016841F002
:102B800001010160304660E7B343000811440008CA
:102B900049440008000001400004014000040040D6
:102BA00000080040000C00400040014000180040B8
:102BB00070B50D0004464FF0000607D0042D0CD070
:102BC000082D11D00C2D16D0012648E02068C168D0
:102BD00021F40071C160606A13E02068C16821F4CB
:102BE0008061C160A06A0CE02068C16821F40061C6
:102BF000C160E06A05E02068C16821F48051C160CD
:102C0000206BFEF79DFD00222946206801F0C4FBE1
:102C1000184B41F2111120688A10984202D0164BCD
:102C2000984209D1036A0B4206D1036A134203D1C9
:102C3000436C23F4004343642068036A0B4206D1CB
:102C4000016A114203D1016821F0010101600120F4
:102C50003DB1042D08D0082D09D084F8410030463C
:102C600070BD84F83E00FAE784F83F00F7E784F887
:102C70004000F4E7000001400004014000680349FF
:102C8000884201D1FEF7DEBF7047000000200040FF
:102C90007047704710B504460068406994F83D10CD
:102CA000C0F3C010212911D180B12068143050E840
:102CB000001F21F0800140E80012002AF5D1606B6E
:102CC00008B1FEF7F4FC204601F0A8FD2068406939
:102CD00094F83E10C0F38010222911D180B12068F1
:102CE000143050E8001F21F0400140E80012002A93
:102CF000F5D1A06B08B1FEF7DAFC204601F067FDC4
:102D0000002010BD70470000F8B50168044608684F
:102D1000CA684B6910F00F0F4FF0000559D003F04F
:102D2000010602F49077374365D0C10705D0D1057D
:102D300003D5216C41F001012164410705D5D90774
:102D400003D0216C41F002012164810705D5D90728
:102D500003D0216C41F004012164010707D502F082
:102D60002001314303D0216C41F008012164216C22
:102D700000293AD0800604D5900602D5204601F0FD
:102D80001FFE20684069216CC0F38010090700D441
:102D900060B3204601F01BFD20684069400621D544
:102DA0002068143050E8001F21F0400140E8001274
:102DB000002AF5D1A06BA8B16C490165A06BFEF7A4
:102DC000BFFC002811D0A06B016D01B0BDE8F04040
:102DD000084783060FD593060DD52046BDE8F84079
:102DE00001F0EEBD2046FFF78DFFF8BD2046FFF74E
:102DF00089FF2564F8BD266B2023012E79D1C606F4
:102E000077D5D60675D508684868009048694006A9
:102E100040D5A16B086840680004000CEAD0A28D80
:102E20008242E7D9E085C869B0F5807F2DD020685F
:102E30000C3050E8001F21F4807140E80012002A95
:102E4000F5D12068143050E8001F21F0010140E85E
:102E50000012002AF5D12068143050E8001F21F03C
:102E6000400140E80012002AF5D184F83E30256385
:102E700020680C3050E8001F21F0100140E80012DB
:102E8000002AF5D1A06BFEF712FCA08DE18D401A4F
:102E900081B229E0A08DE18D401A81B2E08D002839
:102EA000A8D00029A6D020680C3050E8002F22F4CA
:102EB000907240E80026002EF5D12068143050E8CA
:102EC000002F22F0010240E80026002EF5D184F800
:102ED0003E30256320680C3050E8002F22F01002AD
:102EE00040E80023002BF5D12046FFF7D2FEF8BDC5
:102EF000FFE705062BD5150629D594F83D002128B6
:102F0000F5D1A068B0F5805F01D12069B0B1206A29
:102F1000411C2162216800784860E08C401E00045A
:102F2000000CE084E3D12068C16821F08001C16019
:102F30002068C16841F04001C160D8E7206A00887C
:102F4000C0F308004860206A801C2062E5E7400664
:102F5000CDD55006CBD5CA68204622F04002CA60C3
:102F600084F83D3000F0F5F9C1E70000D9460008CB
:102F700070B5040004D094F83D00002510B106E0BF
:102F8000012070BD84F83C50204600F023F8242036
:102F900084F83D002068C16821F40051C1602046DA
:102FA00001F06EFD2068016921F490410161206803
:102FB000416921F02A0141612068C16841F4005152
:102FC000C1602564202084F83D0084F83E00002084
:102FD00070BD00002DE9F04F87B00546142168460A
:102FE000FDF7D2FAC149DFF800830222D5F800C00C
:102FF0000024BE4B103903200827DFF8F4E29606C0
:103000004FF480694FF4003BC44534D1D3F800C07D
:103010004CF4002CC3F800C01B6803F40023059394
:103020000B6843F001030B6009688DE8150001F09F
:103030000101CDE90471039069467046FEF704FD75
:10304000AD4FAC483860C7E90164C7E903497C610A
:10305000BC61C7E9074B38467C62FEF753FC08B1F8
:10306000FDF756FDAF63002205213420BD63FEF756
:1030700081FE342050E0DFF88482C44551D1D3F87A
:1030800000C04CF4801CC3F800C01B6803F480131C
:1030900005930B6843F004030B600B6803F0040313
:1030A00005930B6843F008030B600968804601F044
:1030B000080105914FF48051CDE90012CDE9024895
:1030C0009246049769468E48FEF7BEFC0420CDE97F
:1030D000000ACDE90248694604978A48FEF7B4FC25
:1030E000854F8448603730383860C7E90164C7E9E4
:1030F00003497C61BC61C7E9074B38467C62FEF737
:1031000001FC08B1FDF704FDAF6300220521352065
:10311000BD63FEF72FFE3520FEF71EFE07B0BDE8AB
:10312000F08FDFF8E4814FF0070AC44538D16F4BC8
:103130001B1D1F6847F010071F601B6803F010037A
:1031400005930B6843F001030B60096801F001016E
:1031500005914FF4C0618DE81600CDE9030A694678
:103160007046FEF771FC644F6848C0373860C7E9A5
:103170000164C7E9034980157C61C7E90640C7E9D6
:1031800008B43846FEF7BEFB08B1FDF7C1FCAF63DB
:10319000002205212520BD63FEF7ECFD2520BBE7BD
:1031A000DFF86C81C4453DD11F6847F400371F60CC
:1031B0001B6803F4003305930B6843F001030B60B5
:1031C000096801F0010105910C218DE81600CDE997
:1031D000030A69467046FEF737FC46484D4F4830B3
:1031E0003860C7E90164C7E9034980157C61C7E914
:1031F00006404FF440303862042078620120B86203
:103200000006C7E90B043846FEF77CFB08B1FDF762
:103210007FFCAF63002205212620BD63FEF7AAFDD7
:10322000262079E7DFF8F080C44537D11F6847F4DE
:1032300080271F601B6803F4802305930B6843F00D
:1032400002030B60096801F0020105914FF440612F
:103250008DE81600CDE9030A69463048FEF7F4FB15
:103260002C4F2448603718383860C7E90164C7E933
:10327000034980157C61C7E906403C6238467C62A0
:10328000FEF740FB08B1FDF743FCAF6300220521C8
:103290002720BD63FEF76EFD27203DE7204B9C45B0
:1032A0007FF43CAF114B1B1D1D6845F020051D60D0
:1032B0001B6803F0200305930B6843F004030B60C5
:1032C000096801F004010591C0218DE81600CDE9DF
:1032D000030769460A48FEF7B7FB0022052147208D
:1032E000FEF748FD472017E7004C004040380240F9
:1032F0000000024040600240700E0020005000407C
:1033000000080240000C02400010014040640240EE
:1033100000440040900F002000480040000402409C
:103320000014014090F83E30202B0ED159B152B11B
:1033300090F83C30012B08D0012380F83C3000236A
:10334000036301F023BC01207047022070477047DF
:1033500070477047FEE7000010B5054C0120207053
:1033600000F01AF908B102202070207810BD00008A
:103370008206002000B5044800F030F802485DF8ED
:1033800004EBC83000F00EB8A402002010B50349C9
:10339000034800F0F9FD002010BD0000CD3B0008FF
:1033A0009C14002008490A23B1F90E2092FBF3F285
:1033B00000EE102AB8EEC00A10EE102A40F8072FCF
:1033C00009684160704700004415002010B5FFF700
:1033D000C3FF0149487010BD1800002008490A23A6
:1033E000B1F9102092FBF3F200EE102AB8EEC00AF9
:1033F00010EE102A40F8072F8968416070470000DE
:103400004415002000B5044801F004FD02485DF8B1
:1034100004EB0C3001F006BD441500202DE9F0410D
:1034200004004FF0000609D0594D2068594F28601C
:10343000207928712078A52803D0A5E00120BDE8D7
:10344000F0810521204601F05DFC012840D1617822
:103450002046093101F038FCD0B3B4F8050001264C
:1034600040F20222A0F20221904252D018DCB0F5C4
:10347000817F3BD00ADC01281CD0022829D00328F8
:103480002AD0A0F58070013872D12AE0B0F5827F91
:1034900031D0A0F58070053832D0FC2868D133E0F7
:1034A0003B488030082963D2DFE801F062383F43AF
:1034B000474B575FD4F80700C5F80500D4F80B0058
:1034C000C5F80900B4F80F00A5F80D00607CE8739A
:1034D0004EE0E07928744BE02D482022E11D1130A8
:1034E00020E0D4F80700C5F8310041E0D4F8070027
:1034F000C5F835003CE0B4F80700A5F8390037E01E
:10350000E07985F83B0033E021481B22E11D3C3087
:1035100008E01F481022E11D573003E01C4810222C
:10352000E11D6730FCF797FF22E0E07985F877002E
:103530001EE0E07985F87C001AE0E07985F87E00ED
:1035400016E0D4F80700C5F87F00B4F80B00A5F822
:103550008300607B85F885000AE0D4F80710C0F886
:103560000610B4F80B10418102E0D4F80710C160D6
:10357000B5F801000934015DA52902D12044FFF707
:103580004DFF0EB1012000E000203870304656E7B4
:1035900058150020AC06002070B5074D00246C7053
:1035A00001F07BFC0549D1E90021801A8C4101D34F
:1035B00001206870687870BD820600202800002015
:1035C000164900200A7A012A03D0022A01D0032AD0
:1035D00006D14A7A012A05D0022A03D0032A01D053
:1035E00001207047B1F900304FF4A56203F525734F
:1035F0009342F5D8B1F9023003F525739342EFD821
:10360000B1F9043003F525739342E9D8B1F90610F6
:1036100001F525719142E3D8704700008414002021
:1036200070B5074D0024AC7001F037FC0549D1E9B5
:103630000021801A8C4101D30120A870A87870BDA8
:103640007E06002020000020084900B50020887078
:1036500001F1A00000F01CF80448E43000F00AF882
:1036600003485DF804EB00F023B80000440000209C
:10367000F4010020044901620021C163034A02648D
:10368000826341637047000000401C4600007A4698
:10369000044901620449C163044901648163002152
:1036A0004163704700401C460000FA4500007A461E
:1036B000054901620549C163054901640549816302
:1036C000002141637047000000401C460000F041AB
:1036D000005043470000FA44104810B50E490160FD
:1036E0000321416000214FF410228160C0E90312E0
:1036F0004FF4001242610176012242768276C27650
:1037000001774177FDF717FE002803D0BDE8104090
:10371000FDF7FEB910BD000000640040500B002012
:10372000104810B50E4901600321416000214FF49B
:1037300010228160C0E903124FF400124261017649
:10374000012242768276C27601774177FDF7F3FD5A
:10375000002803D0BDE81040FDF7DAB910BD000025
:1037600000680040780B0020214808B5016841F44A
:1037700080010160016801F480010091016841F459
:10378000001101600068002200F400100090052183
:103790000B20FEF7EFFA0B20FEF7DEFA00220521E0
:1037A0000C20FEF7E7FA0C20FEF7D6FA00220521DE
:1037B0000D20FEF7DFFA0D20FEF7CEFA00220521DC
:1037C0001020FEF7D7FA1020FEF7C6FA00220521D6
:1037D0003920FEF7CFFA3920FEF7BEFA0022052184
:1037E0003A20FEF7C7FABDE808403A20FEF7B4BA1F
:1037F0003038024010B59CB01C2216496846FCF7D0
:103800006FFE0021684601F076FB134C11491C2223
:1038100020601C3107A8FCF763FE002107A801F017
:103820006AFB0C4960601C2238310EA8FCF758FE78
:1038300000210EA801F05FFB0649A0601C22543154
:1038400015A8FCF74DFE002115A801F054FBE0601F
:103850001CB010BD505B000800000020154808B5E2
:10386000016841F080010160016801F08001009170
:10387000016841F001010160016801F0010100915E
:10388000016841F002010160016801F0020100914C
:10389000016841F004010160016801F00401009138
:1038A000016841F008010160006800F00800009024
:1038B00008BD00003038024010B592B000240F94CB
:1038C0001C2108A81094FCF75FFE20216846FCF735
:1038D0005BFE20481E49C0E90014D121C0E9024125
:1038E00080210461C0E90541FFF703F808B1FDF745
:1038F0000FF90F940FA917481094FEF75BFD08B15C
:10390000FDF706F96020CDE908040A940B940C94A5
:103910000D94002208A90F480E94FEF784FF08B109
:10392000FDF7F6F800944FF40050CDE904400294FE
:1039300001940394694607480794FEF711FD08B106
:10394000FDF7E6F80348FEF72BFF12B010BD0000AC
:1039500000000140A00B002010B586B000241648DE
:10396000009401940294039404944FF080410594D0
:1039700001605321C0E9011440F6B731C0E90314D6
:103980008461FEF75FFD08B1FDF7C2F84FF4805087
:10399000009069460848FEF7DFFD08B1FDF7B8F86A
:1039A000049404A904480594FEF704FD002801D0FE
:1039B000FDF7AEF806B010BDE80B002010B592B0D0
:1039C00000240F941C2108A81094FCF7DDFD202191
:1039D0006846FCF7D9FD20481E490160A721C0E9CF
:1039E000011444F61F61C0E9031444618461FEF7C9
:1039F00080FF08B1FDF78CF80F940FA916481094BA
:103A0000FEF7D8FC08B1FDF783F86020CDE9080483
:103A10000A940B940C940D94082208A90E480E9455
:103A2000FEF701FF08B1FDF773F800944FF4005062
:103A3000CDE9044002940194039469460648079432
:103A4000FEF78EFC08B1FDF763F80348FEF7A8FE09
:103A500012B010BD00040140300C00200C4810B51D
:103A60000A4901604FF461214160002181600C220C
:103A7000C160C0E904128161C161FFF779FA0028D1
:103A800003D0BDE81040FDF743B810BD004C004026
:103A9000D80C00200C4810B50A4901604FF4612190
:103AA0004160002181600C22C160C0E90412816183
:103AB000C161FFF75DFA002803D0BDE81040FDF7B3
:103AC00027B810BD005000401C0D00200C4810B558
:103AD0000A4901604FF4E1314160002181600C220C
:103AE000C160C0E904128161C161FFF741FA002899
:103AF00003D0BDE81040FDF70BB810BD0010014029
:103B0000600D00200E4810B50C4901600D49416060
:103B10004FF48051816000214FF48062C0E90312AC
:103B20000C22C0E90521C161FFF722FA002803D069
:103B3000BDE81040FCF7ECBF10BD000000440040A1
:103B4000A40D0020A08601000C4810B50A490160B0
:103B50004FF4E1314160002181600C22C160C0E975
:103B600004128161C161FFF703FA002803D0BDE8A8
:103B70001040FCF7CDBF10BD00480040E80D00200C
:103B80000C4810B50A4901604FF4E1314160002151
:103B900081600C22C160C0E904128161C161FFF73C
:103BA000E7F9002803D0BDE81040FCF7B1BF10BD15
:103BB000001401402C0E0020FEE700B5FFF744FD85
:103BC0005DF804EBFDF718B8FEE700002DE9F041C1
:103BD0000024051D474EB0F8847027E0285DC028FA
:103BE0003BD012DCA52829D008DC902822D0A028C0
:103BF00024D0A12822D0A22817D11FE0B02824D099
:103C0000B12822D0B22810D11FE0D12867D006DC1D
:103C1000C12822D0C22820D0D02806D124E0D9281B
:103C200051D0E02864D0F02862D0641CA742D5DCD3
:103C3000BDE8F0816878B070A41CF7E7281950F847
:103C4000011F7160808830813BE0281950F8011F06
:103C5000C6F80A108088F08133E0281950F8011F57
:103C600031618088B0822CE028194178827801EB9C
:103C7000022109B200EE101A2049F8EEC00A9FEDA9
:103C80001E0A80EE801A81ED001AC278037902EBD9
:103C9000032212B200EE902AF8EEE00A80EE801ABB
:103CA000F2EE040A81ED011A4279807902EB0020DC
:103CB00000B200EE100AB8EEC00A80EE201A81EDC4
:103CC000021AE41DB2E70D4829190C3851F8012FEA
:103CD000C2604A68026189680D344161A6E70748FD
:103CE000291910220C30491CFCF7B5FB11349DE753
:103CF000641D9BE7820600200000C84228150020B2
:103D000030B510EE101A30EE600AC16010EE901A55
:103D100010EE102A01614261416B00EE101A00EEB4
:103D2000901AB1EE401A00EE102A01F039F810EEA8
:103D3000101A4161C26900EE101A00EE902A30EEAE
:103D4000800A10EE103AC361026A00EE103A00EEEB
:103D5000902AB4EEE00AF1EE10FA01DDC26111E042
:103D600000EE902A00EE103AF1EE600AB4EEE00A9E
:103D7000F1EE10FA06D200EE102AB1EE400A10EE73
:103D8000102AEBE7026800EE101A00EE902A20EEEF
:103D9000800A10EE104A4462426800EE102AC2699E
:103DA00000EE902A20EE200A10EE103A00EE101AD3
:103DB0008362826900EE902A826870EE600A00EEEB
:103DC000102A20EE800A10EE105A00EE103AC5625A
:103DD000C26B00EE902AB4EEE00AF1EE10FA01DDBB
:103DE000826211E000EE902A00EE103AF1EE600AD5
:103DF000B4EEE00AF1EE10FA06D200EE102AB1EEAF
:103E0000400A10EE102AEBE7826A00EE104A00EE3C
:103E1000902A70EE200A00EE105A30EE800A10EE62
:103E2000102A02638161816B00EE102A00EE901A65
:103E3000B4EEE00AF1EE10FA01DD016311E000EEEC
:103E4000901A00EE102AF1EE600AB4EEE00AF1EEEC
:103E500010FA06D200EE101AB1EE400A10EE101A57
:103E6000EBE7006B00EE100A30BD0000094A016864
:103E7000914203DDB3EE090A80ED000A064A0168AB
:103E8000914202D800EE101A7047BBEE040A80ED92
:103E9000000A70470000C8410000A0C12DE9F041B0
:103EA000384C014620462778D0E903200623A61D7A
:103EB0000025072F62D2DFE807F004081A1F272A1F
:103EC00031005A295BD1012009E080F88810A5292A
:103ED00004D0A62905D0A72951D105E002202070E1
:103EE0004DE0EAB3904749E00560237047E0A0F851
:103EF0008410B1700320F2E730F8842F42EA0122E7
:103F00000280F1700420EAE761800520E7E762881B
:103F100042EA012161800560A580E6E70368061D8D
:103F20005F1C0760995590F88810A72907D1016890
:103F3000082904D30821A0F884109047257020692F
:103F4000B0F884200168914219D390F88800A52820
:103F500015D10C490422891D881E00F044FF00E0A1
:103F60000CE02169074804C9001D00F03CFFA0884F
:103F70006188884202D1D4E9031088472570002067
:103F8000BDE8F0819806002070B5044D0446E96054
:103F90008C21FCF7F9FA2C6170BD00009806002016
:103FA00010B5074C01202070FFF70AFB08B1002074
:103FB0002070FFF735FB08B102202070207810BD7B
:103FC0007E06002000B50346D0ED2D0A0D48B0F95D
:103FD000020000EE100A03F12000B8EEC00A20EE45
:103FE000800A83ED2C0AD3ED080A30EE800A83EDB7
:103FF000080AFFF73BFFD3F80B005861D3F80F0016
:10400000D86100BD8414002010B50446D0ED2D0AFF
:104010000E48B0F90000404200EE100A04F1200002
:10402000B8EEC00A20EE800A84ED2C0AD4ED080A0E
:1040300030EE800A84ED080A00F078FED4F80B0018
:104040006061D4F80F00E06110BD0000841400200E
:1040500030B5144B1C68656945F0400565611B6807
:10406000DC6844F01004DC600F4B1C68256825F008
:10407000010525601C682568ED07F7D11D680B4C0C
:10408000AC601C68E06018680161186842601868DC
:10409000016841F4802101601868016841F0010164
:1040A000016030BDA40D0020900F002004440040AA
:1040B00010B5FFF775FF0149087010BD180000200A
:1040C00002492422A1F12400FFF7C2BF841100207D
:1040D00000F0D4F8FFF7ECFFFFF778F900F008F8EC
:1040E000012001F08DFAF3E7012000F0F8FEFBE774
:1040F00010B52A4C4FF000032046617800781A462C
:1041000081B30146002001F053FB002201232178F6
:104110004FEA020001F04CFBA0784FF0020348B3D5
:1041200000212278084601F043FB03232278002176
:10413000002001F03DFBE0784FF0040318B30022AB
:104140001146207801F034FB002205231146207827
:1041500001F02EFBE823BDE81040114A0021114870
:10416000FEF748BC002101F023FB01230022114689
:104170002078CFE700222178104601F019FB0323B5
:1041800000222178D4E700212278084601F010FBB4
:104190000523002122780846DAE7000032000020DB
:1041A00036120020A00B002010B5502080F311889B
:1041B000BFF34F8FBFF36F8F01F0FCFB18B10449C1
:1041C0004FF080500860002080F3118810BD00007F
:1041D00004ED00E030B593B030216846FCF7D4F927
:1041E00014210CA8FCF7D0F91E480025016841F005
:1041F00080510160006800F0805011901A480168F9
:1042000041F4804101600068022400F48040119074
:1042100001200090000401908001CDE906401920A2
:1042200008904FF4A870CDE9090404200B9068466B
:10423000FDF7DEFE08B172B6FEE70CA90F2081E89B
:1042400031004FF4A0500F904FF480501090052192
:104250000CA8FDF7C1FD002801D072B6FEE713B02F
:1042600030BD000040380240007000400248016844
:1042700041F470010160704788ED00E0094A104682
:104280001178407801B108B900239370012906D054
:10429000022901D0022801D1022090707047012824
:1042A000FBD0F7E7180000200148FEF7C5B9000071
:1042B000E80B002010B50448FEF7BEF9BDE8104039
:1042C0000248FEF7B9B90000300C00205010002061
:1042D000F0B50268254C264D264E274F274B4FF050
:1042E000804CA04209D0604507D0A84205D0B0421A
:1042F00003D0B84201D0984204D122F0700E4A682F
:1043000042EA0E02A0421BD0604519D0A84217D045
:10431000B04215D0B84213D0984211D0184DA842DF
:104320000ED0184DA8420BD0174DA84208D0174DFB
:10433000A84205D0164DA84202D0164DA84203D17E
:1043400022F44075CA682A434D6922F080022A434C
:1043500002608A68C2620A688262A04201D0984202
:1043600001D10969016301214161F0BD00000140F3
:104370000004004000080040000C00400004014020
:104380000040014000440140004801400018004046
:10439000001C00400020004010B501F01F03012167
:1043A000046A99408C430462016A9A401143016295
:1043B00010BD10B5846B0121626A824205D121775C
:1043C000C069F8B984F83E101CE0A26A824206D1A6
:1043D00002222277C069A8B984F83F1012E0E26A8D
:1043E000824206D104222277C06958B984F840106D
:1043F00008E0226B824205D108222277C06908B901
:1044000084F841102046FEF7EDFA0020207710BD19
:1044100010B5846B616A814201D101200DE0A16A6F
:10442000814201D1022008E0E16A814201D10420E9
:1044300003E0216B814201D1082020772046FEF75E
:10444000D7FA0020207710BD10B5846B0121626A75
:10445000824203D1217784F83E1019E0A26A824299
:1044600004D10220207784F83F1011E0E26A8242F2
:1044700004D10420207784F8401009E0226B8242A6
:1044800004D10820207784F8411001E084F83D1021
:104490002046FEF7CFF80020207710BD10B58468C5
:1044A00042EA032224F47F440A432243826010BD7F
:1044B000826822F070020A4342F00701816070476F
:1044C000F0B5026A22F001020262036A426884695E
:1044D000124E24F073050C682C4323F002058B6800
:1044E0002B430D4DA84201D0B04205D123F008075F
:1044F000CB683B4323F00403A84201D0B04205D16E
:104500004D6922F4407215438A692A4342608461EE
:10451000496841630362F0BD0000014000040140AE
:10452000F0B5026A22F010020262026A43688469EE
:104530000D6824F4E64444EA05248D6822F0200244
:1045400042EA05120F4D104EA84201D0B04206D1EA
:10455000CF6822F0800242EA071222F04002A8420D
:1045600001D0B04207D14D6923F4406343EA85038B
:104570008D6943EA8503436084614968816302620F
:10458000F0BD00000000014000040140F0B5026AE7
:1045900022F480720262026A4368C46922F40072E3
:1045A00024F073050C68124E2C438D6842EA0522F4
:1045B0000E4DA84201D0B04206D1CF6822F400626D
:1045C00042EA072222F48062A84201D0B04207D119
:1045D0004D6923F4405343EA05138D6943EA0513FB
:1045E0004360C4614968C1630262F0BD00000140DC
:1045F0000004014030B5026A22F480520262046A6B
:104600004268C3690D6823F4E64343EA05238D68D5
:1046100024F4005444EA0534084DA84202D0084D61
:10462000A84204D14D6922F4804242EA85124260D8
:10463000C36149680164046230BD000000000140AC
:104640000004014010B5036A046A24F00104046206
:10465000846924F0F00444EA021423F00A020A43B5
:104660008461026210BD10B5036A23F01003036277
:104670008369046A23F4704343EA023224F0A003FE
:1046800043EA01118261016210BD000070B500F0C3
:1046900004FC044D0024C5E9020400F0FEFBC5E95A
:1046A000040470BD1800002010B50448FEF72CFB70
:1046B000BDE81040014800F0BFB80000D80C002051
:1046C00010B50448FEF720FBBDE81040014800F09B
:1046D000B3B800001C0D002010B5806B0021C1850F
:1046E000C184FEF70FFB10BD70B5846B2068406974
:1046F00094F83D10C0F3C0100025212904D118B151
:10470000E584204600F08AF82068406994F83E105D
:10471000C0F38010222904D118B1E585204600F0AD
:1047200056F8206C40F0100020642046FEF7EAFAAC
:1047300070BD10B50146806B09680968C9052FD4A2
:104740000021C18501680C3151E8002F22F48072EC
:1047500041E80023002BF5D10168143151E8002F06
:1047600022F0010241E80023002BF5D10168143149
:1047700051E8002F22F0400241E80023002BF5D140
:10478000202180F83E10016B012909D101680C310C
:1047900051E8002F22F0100241E80023002BF5D150
:1047A000016B012902D0FEF7D2FD10BD818DFEF70D
:1047B00070FA10BD10B5806B016B012902D0FEF7B5
:1047C000C7FD10BD818D4908FEF763FA10BD016871
:1047D0000C3151E8002F22F4907241E80023002BA5
:1047E000F5D10168143151E8002F22F0010241E8AF
:1047F0000023002BF5D1016B012909D101680C318F
:1048000051E8002F22F0100241E80023002BF5D1DF
:10481000202180F83E1000210163704701680C31AF
:1048200051E8002F22F0C00241E80023002BF5D10F
:10483000202180F83D1070472DE9F8430646564880
:104840000024864218D100680168C943C9061FD4F4
:104850000168406800905048FEF71CFA80224F49DA
:104860004D48FEF75FFD4D48FEF7D8FDBDE8F84323
:1048700080214A48FBF766BE494947F230558E42CF
:104880004BD108680268920604D501684068009020
:10489000BDE8F8830268D206FAD502684068009045
:1048A000886B006802684FF0240316033D4A0668CF
:1048B00026F001060660886B06687068C0F1240067
:1048C00080B2108073608A6B126813680ED443F450
:1048D00000231360896B09680A6842F001020A60CC
:1048E000122813D12D483049C8300DE023F400239D
:1048F0001360896B09680A6842F001020A60122895
:1049000004D126482849EC3000F04AFD00F0C5FAF1
:1049100026492844C1E90004BAE72548864211D156
:1049200000680168C943C906B2D4016840680090B4
:104930001F48FEF7AFF9BDE8F84310221D491C4897
:10494000FEF7F0BC1C488642A2D100680168C9434A
:10495000C9069DD40168A046406800901648FEF73D
:1049600099F9144F00240D37385DFFF797FA641C4E
:10497000802CF9D30F4980220D313046FEF7D2FC4E
:104980000C4880210D30FBF7DDFD00F086FA0B4A64
:104990002844C2E900087BE7600D00209810002041
:1049A000A40D0020300000208414002020000020EE
:1049B000D80C0020A81100201C0D00202800002089
:1049C00008B590F83E10222901D0022008BD826867
:1049D0004FF480539A4201D1016921B1816A9A4210
:1049E0001BD04AB10AE00268816A5268C2F3080229
:1049F0000A80816A891C08E0026972B10268526803
:104A000002F07F020A70816A491C8162C18D491ED1
:104A10000904090CC18503D019E002685268F1E766
:104A20000168CA6822F02002CA600168CA6822F4DC
:104A30008072CA6001684A6922F001024A6120213D
:104A400080F83E10016B012903D0FEF780FC0020A6
:104A500008BD0021016301680C3151E8002F22F0EC
:104A6000100241E80023002BF5D101680A68D20644
:104A700002D50A6849680091818DFEF70AF9E6E7D8
:104A800070B5044600680169E26821F440511143A1
:104A900001612169A068E269084361691143084323
:104AA0002168CA6849F20C639A430243CA602068CD
:104AB0004169A26921F44071114341613149206883
:104AC000884202D03049884202D1FDF74FFA01E016
:104AD000FDF73CFAE2690023192164253226B2F57C
:104AE000004F626828D0A0FB0101930F9200FBF7F2
:104AF0003BFC0146B0FBF5F06FF01802504301EBB0
:104B0000800006EB0010B0FBF5F000F0F002B1FB06
:104B1000F5F002EB0012B1FBF5F06FF0180358430B
:104B200001EB800006EB0010B0FBF5F000F00F0089
:104B300021681044886070BDA0FB010192185B41A0
:104B4000FBF712FC0146B0FBF5F00201B1FBF5F0FA
:104B50006FF01803584301EB800006EBC000B0FB78
:104B6000F5F000F0F80002EB4002B1FBF5F058431D
:104B700001EB800006EBC000B0FBF5F000F0070091
:104B8000D6E70000001001400014014038B58162F2
:104B900082850025134604460564222084F83E00E1
:104BA000A26B1C48D063A26B1B481064A26B1B480D
:104BB000D064A06B0A4605652168A06B091DFCF74F
:104BC0000BFF206801684068009084F83C50206921
:104BD00048B120680C3050E8001F41F4807140E873
:104BE0000012002AF5D12068143050E8001F41F06F
:104BF000010140E80012002AF5D12068143050E885
:104C0000001F41F0400140E80012002AF5D10020C9
:104C100038BD000033470008B5470008E9460008E2
:104C200010B50448FEF770F8BDE810400148FFF7E2
:104C300003BE0000600D002010B50448FEF764F8C4
:104C4000BDE810400148FFF7F7BD0000A40D0020AB
:104C50000148FEF759B80000E80D00200148FEF7B2
:104C600053B800002C0E002010B5FFF729FAFEF70C
:104C70008DFB0F480068C16841F01001C1600D480C
:104C80000068C16841F01001C1600B480068C1684C
:104C900041F01001C16009480068C16841F010018D
:104CA000C16007480068C16841F02001C16010BDC3
:104CB000600D0020A40D0020D80C00201C0D002049
:104CC0002C0E0020FEE7000030B50C46050014D085
:104CD000022C12D90A48A11E02882846FBF79EFF23
:104CE0002919C2B211F8023C9A4206D111F8011CEE
:104CF000B1EB102F01D1012030BD002030BD0000EC
:104D00008208002030B50C4605000AD0022C08D9D4
:104D1000FF22611EFBF798FF291911F8011C81423F
:104D200001D1012030BD002030BD0000104990EDC0
:104D3000000A104BD1F813109FED0F1A00EE901AD5
:104D400070EE600A10EE902A9A4202DD30EE410ABF
:104D50000AE000EE901A094A70EE600A10EE901A0E
:104D6000914203D930EE010A80ED000A704700003D
:104D70009C020020000034430000B443000034C310
:104D80000907090E002804DB00F1E02080F8001478
:104D9000704700F00F0000F1E02080F8141D70470C
:104DA000B4EEC10AF1EE10FA06DDB4EEE00AF1EE5F
:104DB00010FA01D29FED010A7047000000000000C8
:104DC0000A8852BA02604A8852BA42608A8852BA45
:104DD00082608979017364214A434FF4166192FB22
:104DE000F1F101617047F0B50388002541F2210718
:104DF0000CE04C5D002683EA04235C001B0400D514
:104E00007C40761C2346082EF7D36D1C9542F0D3C8
:104E10000380F0BD024B0ECB80E80E0000207047EF
:104E2000281500200349D1F80A200260C989818031
:104E30000020704782060020FCF70CFFFFF7CAF93C
:104E4000FEF70CFDFEF790FCFEF746FCFEF768FC53
:104E5000FEF73CFEFEF756FEFEF700FEFEF774FE80
:104E6000FEF718FEFEF78CFEFEF776FDFEF7A6FDB8
:104E7000FEF722FDFBF743FEFEF79FFEFFF706FC61
:104E8000FBF76EFDFEF7B6FC00F030F8FEE70146DA
:104E90000020842900D0C81C704738B54FF0E024AA
:104EA0002069FCF7C9FE6569A1696D1C691A00914A
:104EB0002169C1F3004181B1FCF7BEFEA169691A05
:104EC00000914FF47A725143B1FBF5F100EB4002CF
:104ED000C2EBC01001EBC00038BD0099F1E710B57E
:104EE00000B9012000F08CFB002010BD10B500F0CF
:104EF000F3FB002010BD7FB50D4604464169B0F9B3
:104F0000080081B1A16971B1FFF7C1FFD4E90512B1
:104F10008DE80700D4E900102B46226900F019FD46
:104F2000039004B070BDFFF7B2FF03A9CDE9000103
:104F3000208A2B4682B2D4E9001000F0DDFC012863
:104F400001D00020EDE70398EBE700002DE9F041E8
:104F5000184C0F460546E6682068001D00F089FAE7
:104F600038B9206890F82C100120884021698143CD
:104F70002161681C07D137B12168BDE8F0410E48B6
:104F8000091D00F0B9BA20683544B5424560216872
:104F900005D2A06BBDE8F041091D00F095BA606B29
:104FA000091D00F091FAA06A854200D2A562BDE811
:104FB000F081000084080020C41600202DE9F04193
:104FC000054600F0A5FA2E4CA068401CA0602068A1
:104FD0002C4F10B1606940B32DE02560A068012816
:104FE00029D1002606EB860007EB800000F05EFA70
:104FF000761C072EF6D323488C3000F057FA214850
:10500000A03000F053FA1F48B43000F04FFA1D48AA
:10501000C83000F04BFA1B48DC3000F047FA194862
:105020008C3060631430A06305E02068E96AC06AD0
:10503000884200D82560606A401C6062E96A0120ED
:10504000226988401043206101EB810007EB80005A
:10505000291D00F051FA00F07BFA606900280CD09D
:105060002068E96AC06A884207D207494FF0805039
:105070000860BFF34F8FBFF36F8FBDE8F081000072
:1050800084080020E815002004ED00E010B5044677
:1050900090F8510058B101280CD002280FD05020B0
:1050A00080F31188BFF34F8FBFF36F8FFEE7206B44
:1050B00000F062FA2046BDE8104000F05DBA10BD75
:1050C00010484FF47051420706D0C01D0D4920F022
:1050D0000700411AC1F570510B4A00230144C2E98F
:1050E00000030839183A21F0070111604B600B608A
:1050F0000B1AC0E9001393604FF0004053605061F9
:1051000070470000D8160020D8080020144E154C17
:10511000A6F1C8074FF08058DFF84C9012E000BFAE
:1051200000F0F6F9F068C568281D00F0A2F9A06843
:10513000401EA0606068401E606000F009FA2846CA
:10514000FFF7A4FF60680028EAD138680128F9D980
:10515000C9F80080BFF34F8FBFF36F8FF2E70000F5
:10516000B01600208408002004ED00E02DE9F0478F
:105170009A46DDE9098481466FF00303206B03EB57
:1051800082021044089E20F00707780707D05020BD
:1051900080F31188BFF34F8FBFF36F8FFEE70025B9
:1051A00061B1002023180A5C83F834200A5C12B134
:1051B000401C1028F6D384F8435001E084F83450A2
:1051C000072E00D30626E662C4E91165201D00F013
:1051D00078F904F1180000F074F92461C6F10700B1
:1051E0006462A061E56484F85050524649463846EE
:1051F00000F0C0F82060B8F1000F01D0C8F80040FE
:10520000BDE8F08730B5114900E011460A688242D6
:10521000FBD34B685C18844203D140681844486053
:10522000084643681C18944209D1084C183C24686D
:10523000A24209D052681A4442600A6812680260A9
:10524000814200D0086030BD0460F9E7D808002032
:105250000648416B096829B1416BC968C96849684A
:10526000816270474FF0FF31FAE7000084080020A8
:1052700008484068401C4FF0500080F3118804D06B
:10528000BFF34F8FBFF36F8FFEE7BFF34F8FBFF3B7
:105290006F8FFEE7E00800202DE9F041054600276A
:1052A00000F050FA324E306808B9FFF709FF706914
:1052B00005424ED1C5B3083568070ED005F007008A
:1052C000C0F108000544680707D0502080F311881A
:1052D000BFF34F8FBFF36F8FFEE72DB3706885422A
:1052E00037D82348183001460C6801E020460C46A8
:1052F0006168A94202D221680029F7D131688C4245
:1053000027D007682168016060680837411B1029B1
:105310000FD96019420708D0502080F31188BFF3DD
:105320004F8FBFF36F8FFEE713E041606560FFF7BB
:1053300069FF61687068401A7060B268904200D27C
:10534000B060706901430020C4E90001F068401CAE
:10535000F06000F095FB780707D0502080F31188AB
:10536000BFF34F8FBFF36F8FFEE73846BDE8F08184
:10537000C008002010B5031F4FF080741C601B1F75
:1053800021F001011960191F044B0B6014390A60E8
:10539000091F6FF0020244380A6010BD7152000804
:1053A000F0B5002864D0002962D00278437842EA40
:1053B0000322C2F30A020A8043788478DB0843EAB6
:1053C0004413C3F30A044C808378C5789B0943EAED
:1053D0008503057943EA8523C3F30A038B800579A6
:1053E00046796D0845EAC615C5F30A05CD804679AC
:1053F000C6F301160E724679B6094E728679C779E0
:1054000046EA07268E81067A477A46EA0726CE8143
:10541000867AC77A46EA07260E82067B8E74467B1A
:10542000CE74867BC77B46EA07268E82067C407C4C
:10543000A2F5806246EA002048810A80A4F58064D3
:105440004C80A3F580638B80A5F580650020083231
:10545000CD80102A00D808800834102C00D848804D
:105460000833102B00D888800835102D00D8C8804C
:10547000F0BDD0E9013201699A60D0E901235A6098
:105480004A68824201D182684A600022026108684B
:10549000401E086008687047034B036003F1540026
:1054A0000860802010607047FC08002000F10801AF
:1054B0004FF0FF32C0E90112C160016100210160BB
:1054C000704700210161704730B50B685A1C02D04B
:1054D00000F1080202E0026904E0224654682568EF
:1054E0009D42FAD953684B6099608A6051600861A7
:1054F0000168491C016030BD42684A6093688B6056
:1055000093685960916008610168491C01607047A7
:10551000502080F31188BFF34F8FBFF36F8F0A497C
:105520004868401C486001280CD10848006810F009
:10553000FF0F07D0502080F31188BFF34F8FBFF3C8
:105540006F8FFEE770470000E008002004ED00E0E8
:105550000849486828B1401E486001D180F311888D
:105560007047502080F31188BFF34F8FBFF36F8FC8
:10557000FEE70000E008002070B500282AD0164D94
:10558000A0F1080460686969084207D1502080F3DF
:105590001188BFF34F8FBFF36F8FFEE722683AB1D8
:1055A000502080F31188BFF34F8FBFF36F8FFEE75A
:1055B0008843606000F0C6F8606869680844686005
:1055C0002046FFF71FFE2869401C2861BDE8704097
:1055D00000F056BA70BD0000C00800204FF0E02077
:1055E00000210161816105494FF47A720968B1FBBC
:1055F000F2F1491E4161072101617047F80800205E
:1056000010B5020014D00F48006B38B1502080F361
:105610001188BFF34F8FBFF36F8FFEE700F092F852
:1056200000211046FFF792FC00F02AFA002807D16B
:1056300005494FF080500860BFF34F8FBFF36F8F65
:1056400010BD00008408002004ED00E070B50D4698
:1056500004000BD095B11E4A106BB8B1502080F3F6
:105660001188BFF34F8FBFF36F8FFEE7502080F399
:105670001188BFF34F8FBFF36F8FFEE7502080F389
:105680001188BFF34F8FBFF36F8FFEE700F05AF81A
:10569000D26823685919934204D98B420AD991429E
:1056A00002D807E08B42FAD9881A21600021FFF75F
:1056B0004DFC00E0216000F0E3F9002807D1054926
:1056C0004FF080500860BFF34F8FBFF36F8F70BDF6
:1056D0008408002004ED00E010B586B00024039497
:1056E00005AA04A903A80494FFF7D6FEDDE9030187
:1056F0000094CDE9011000230EA11048059A00F096
:1057000028F90F490028C86211D0502080F3118871
:10571000BFF34F8FBFF36F8F4FF0FF3088620120D0
:105720004861CC6006B0BDE8104000F06BB806B030
:1057300010BD000049444C45000000000D51000818
:10574000840800200248016B491C01637047000077
:10575000840800201448016B11B10121C161704718
:105760000021C1610169B1FA81F1C1F11F0101EBB1
:1057700081020E4951F822306BB101EB820101F137
:1057800008034A6852684A609A4201D152684A60E6
:10579000D16801607047502080F31188BFF34F8FAC
:1057A000BFF36F8FFEE7000084080020E81500209B
:1057B00070B5134C03EB430304EB03140023A03434
:1057C00001FA03F52D0601D58E2500E0432524F8C6
:1057D000135000FA03F52D0601D58E2600E043266E
:1057E00004EB43052E8202FA03F6360601D58E2617
:1057F00000E043265B1C9BB22E84082BE0D370BDD7
:10580000361200201CB537480168374A914207D14B
:10581000502080F31188BFF34F8FBFF36F8FFEE7E7
:1058200000683149491E884207D1502080F3118811
:10583000BFF34F8FBFF36F8FFEE72C4908780190BD
:10584000FF20087008788DF800009DF800009DF892
:10585000002000F0F000904207D0502080F3118823
:10586000BFF34F8FBFF36F8FFEE79DF80000204C12
:1058700000F0500020700720A06005E09DF8002097
:1058800052008DF80020401E9DF800201206F5D42D
:10589000A060032807D0502080F31188BFF34F8FFA
:1058A000BFF36F8FFEE74FF44070A060019808705F
:1058B0000C482030016841F470010160016841F03A
:1058C00070410160FFF78AFE00206060FAF7F0FC8B
:1058D0000848016841F040410160FAF7D5FC00201A
:1058E0001CBD000000ED00E071C20F4100E400E0CB
:1058F000E008002034EF00E02DE9FF5F8346DDE99A
:105900000E87994616468A469000FFF7C5FC0500AB
:105910001CD05420FFF7C0FC040014D000202563E5
:1059200084F85100CDE90240CDE900874B4632466C
:1059300051465846FFF71AFC2046FFF73FFB01206F
:1059400004B0BDE8F09F2846FFF716FE4FF0FF3089
:10595000F6E7F0B585B0DDE90B640A9DA6B1DCB1D0
:10596000542700972663022684F85160002604AF6E
:10597000CDE90246CDE90057FFF7F8FB2046FFF7D7
:105980001DFB049805B0F0BD502080F31188BFF3D3
:105990004F8FBFF36F8FFEE7502080F31188BFF366
:1059A0004F8FBFF36F8FFEE70148C068704700005C
:1059B000840800202DE9F0412F4C0026206B28B1EF
:1059C000A069401CA0613046BDE8F081E5686D1C0F
:1059D000E56013D1606B006838B1502080F3118806
:1059E000BFF34F8FBFF36F8FFEE7606BA16B6163F7
:1059F000A063206A401C2062FFF72AFCA06ADFF83F
:105A00007C80854209D3606B0068A0B1606BC06880
:105A1000C7687868854211D2A0622068C06A00EB2E
:105A2000800158F82100012800D90126E0690028EA
:105A3000C9D00126C7E74FF0FF30EDE7381DFFF76B
:105A400018FDB86A18B107F11800FFF712FDF96ADE
:105A50000120226988401043206101EB810108EB9D
:105A60008100391DFFF748FDF86A2168C96A88423C
:105A7000C9D30126C7E7000084080020E8150020EC
:105A80002DE9F0472C4D00242746286B38B1FFF74D
:105A90003FFD286B401E2863286B40B146E0502034
:105AA00080F31188BFF34F8FBFF36F8FFEE7A968B4
:105AB000224E0120D1B3A6F1B40980463068E8B186
:105AC000F068C46804F11800FFF7D3FC201DFFF74D
:105AD000D0FCE06A2A6908FA00F11143296100EB61
